:020000040000FA
:10000000780A002099010000B50100007D01000080
:1000100000000000000000000000000000000000E0
:10002000000000000000000000000000B901000016
:100030000000000000000000BB010000BD01000046
:10004000BF010000BF010000BF010000BF010000B0
:10005000BF010000BF010000BF010000BF010000A0
:10006000BF010000350D0000BF010000BF0100000E
:10007000710D0000BF010000BF010000BF010000C2
:10008000BF010000BF010000BF010000BF01000070
:10009000BF010000BF010000BF010000BF01000060
:1000A00000000000BF010000BF010000BF01000010
:1000B000BF010000BF010000BF010000BF01000040
:1000C00000F002F800F04BF80CA030C808382418F3
:1000D0002D18A246671EAB4654465D46AC4201D180
:1000E00000F03DF87E460F3E0FCCB6460126334267
:1000F00000D0FB1AA246AB4633431847C40F00009A
:10010000E40F0000103A02D378C878C1FAD8520739
:1001100001D330C830C101D504680C6070470000BD
:100120000023002400250026103A01D378C1FBD813
:10013000520700D330C100D50B60704710B5642959
:1001400002D100F08FF810BD782902D100F0C0F87C
:1001500010BD002010BD1FB51FBD10B510BD00F0B3
:10016000C7FA1146FFF7F7FF00F0F4FE00F0DFFAE0
:1001700003B4FFF7F2FF03BC00F0E6FA0420714677
:10018000084202D0EFF3098001E0EFF308807146E6
:10019000004A10477D0A00000C480D4901600D49D6
:1001A00001600D4901600D4A0D4911600021016097
:1001B0000C480047FEE7FEE7FEE7FEE7FEE7FEE746
:1001C00009480A490A4A0B4B7047000000010050D9
:1001D0005900000016000000880000006000005078
:1001E000A55A0000C100000078000020780A002015
:1001F00078050020780500200FB4054910B503AA42
:10020000029800F035FA10BC08BC04B01847000092
:100210000800002070B5044685690068C10601D554
:10022000302600E02026C00707D070BD6268304647
:10023000A1689047206A401C20626D1EF6D570BDF3
:1002400070B5044685690078C00707D170BD626843
:10025000A16820209047206A401C20626D1EF6D5C0
:1002600070BD0000F7B5002575291068009914A627
:1002700011D0C046C046002802DA404211A608E06C
:10028000009909688A0701D50FA602E0490704D53D
:100290000EA6012501E0C046C046009F0024243779
:1002A00004E000F0F9F930313955641C0028F8D128
:1002B0002B4632462146009800F082F9FEBD000030
:1002C000000000002D0000002B00000020000000B6
:1002D00070B504460D4621461068C046C0462188C8
:1002E000090502D50F4A7A4402E00E4A7A440E32DA
:1002F00023460021243305E006070009360F965DEA
:100300005E54491C0028F7D120780023000705D54A
:10031000702D03D0002901D002231132204600F0B5
:100320004FF970BD9A0D0000F3B50446002081B06E
:1003300020622046E168884700287DD0252802D029
:100340006268A16883E0454F00257F442046E1684C
:1003500088472028064608DB312E06D2B8192038F7
:100360000078002801D00543F0E7A80701D5042054
:1003700085430020E0610746A0612A2E0AD030465E
:1003800000F0D8FD002827D0B8000019303E0090BA
:10039000866119E00298BA00121902C891610290B0
:1003A0002046E1688847012F064617D1E0690028FA
:1003B0001FDA202085431CE000980A218069484309
:1003C00000998019303888612046E16888470646E0
:1003D00000F0B0FD0028EFD1012F0AD02E2E08D159
:1003E0002046E16888470646202005437F1C022FEF
:1003F000C3DBA069002803DA4042A0610120054365
:10040000E80701D010208543002E24D03046413823
:10041000192803D80120C002054320362046256054
:100420003146029A1546FFF789FE00280CD00128B4
:1004300007D0ED1DE80800E00DE0C0000830029094
:1004400077E72D1D029574E762683046A1689047F2
:10045000206A401C6CE7206AFEBD00005E0D0000B3
:10046000002203098B422CD3030A8B4211D30023B1
:100470009C464EE003460B433CD4002243088B428B
:1004800031D303098B421CD3030A8B4201D3944618
:100490003FE0C3098B4201D3CB01C01A524183090B
:1004A0008B4201D38B01C01A524143098B4201D3C5
:1004B0004B01C01A524103098B4201D30B01C01AF0
:1004C0005241C3088B4201D3CB00C01A524183086A
:1004D0008B4201D38B00C01A524143088B4201D397
:1004E0004B00C01A5241411A00D2014652411046F7
:1004F00070475DE0CA0F00D04942031000D340426C
:10050000534000229C4603098B422DD3030A8B42A1
:1005100012D3FC22890112BA030A8B420CD389013F
:1005200092118B4208D3890192118B4204D3890125
:100530003AD0921100E08909C3098B4201D3CB0163
:10054000C01A524183098B4201D38B01C01A524118
:1005500043098B4201D34B01C01A524103098B421C
:1005600001D30B01C01A5241C3088B4201D3CB0007
:10057000C01A524183088B4201D38B00C01A5241EA
:10058000D9D243088B4201D34B00C01A5241411AC1
:1005900000D20146634652415B10104601D34042EF
:1005A000002B00D54942704763465B1000D34042A0
:1005B00001B50020C046C04602BD70477047704775
:1005C000FFB504460D4681B02430009021688806AE
:1005D00004D51022E0699143216000E00120A84287
:1005E00001DD471B00E000270498A1697A19101863
:1005F000081AA0612078C00602D42046FFF70AFE40
:10060000002608E003986268A168805D9047206A30
:10061000401C761C206204988642F3DB2078C006DA
:100620000AD52046FFF7F6FD06E06268A168302093
:100630009047206A401C206238467F1E0028F4DC68
:1006400007E000986268A168405D9047206A401CFE
:10065000206228466D1E0028F3DC2046FFF7F0FDDF
:100660002078000602D5022005B0F0BD0120FBE78E
:10067000084B70B50D467B4400F027F80446284629
:1006800000F05FFC002802D00020C04370BD20466F
:1006900070BD0000CF08000001468008081A02095A
:1006A0001018020A1018020C1018C0088200121844
:1006B0005200891A01E0401C0A390A29FBD270470E
:1006C00001694A1C02610878704700B58FB0029139
:1006D0000021059105490193794403911146049045
:1006E0006846FFF721FE0FB000BD0000E5FFFFFFE9
:1006F000754600F025F8AE46050069465346C00829
:10070000C000854618B020B5FFF75AFD60BC002731
:100710004908B6460026C0C5C0C5C0C5C0C5C0C5CD
:10072000C0C5C0C5C0C5403D49008D46704710B525
:100730000446C046C0462046FFF71AFD10BD000023
:10074000004870471400002001491820ABBEFEE7A6
:10075000260002007047000010221143054A9162F2
:10076000916840231943916091690C239943014397
:100770009161704700020050C10F8A00044951186E
:100780004A68C306DB0E0120984002434A60704766
:10079000000200507FB51D4A0B4636CA6E4636C66B
:1007A0001B498B4202D31B498B4200D90B460124C3
:1007B0006404A04200D0002417491846FFF750FEF9
:1007C0000321FFF74DFE8200102003E0400852088D
:1007D0001028FBD85F2AF9D803216B468D005D599C
:1007E000854201D0491EF9D509022143203A0B4820
:1007F00011434162416AC20191434162042000F009
:1008000009F900F051F804B070BD00003410000088
:10081000006CDC02000E270740420F00000200506F
:1008200010B504460C48016821430160E00702D07E
:10083000012000F0EFF8A00702D5022000F0EAF84E
:10084000600702D5102000F0E5F8200702D5082047
:1008500000F0E0F810BD00000002005010B500F0FC
:10086000EBF90148006810BD0000002010B500F051
:10087000E3F90148006810BD00000020024800684C
:10088000C00700D00148704700020050001BB700AD
:1008900004480068800702D50120C003704700208B
:1008A000704700000002005010B51248406AC103B2
:1008B00001D5002010BDC10401D5022400E00124AF
:1008C0008105890F0FD001290FD002290FD01021E7
:1008D0008006800E084A20305043FFF7C1FD2146B4
:1008E000FFF7BEFD10BD0221F2E70421F0E7082169
:1008F000EEE7000000020050001BB700F8B5194DEC
:10090000EC68102618493440184F884207D104205B
:10091000FFF786FF0021072000F02EF81FE01449A2
:10092000884202D31349884200D908462968C9077A
:1009300004D041000020FFF72DFF06E04100012018
:100940004004FFF727FFEC6834400121022000F04B
:1009500013F8002C03D128680421884328603868E4
:10096000F8BD000000020050001BB700000000208E
:1009700000366E0180DE8002F3B5114C81B0E5686F
:100980000F46102620683540042108432060304679
:1009900000F040F82069072108432061E069000960
:1009A00000013843E06120698843019908432061D0
:1009B00000F042F9002D02D12068B0432060FEBD56
:1009C0000002005070B5840A23061B0E0CD00303EE
:1009D0009B0F0F4D9B005B191D688605E4B2F60E58
:1009E000B440A54315431D60420E12070ED04200CD
:1009F000074B920F92000C3BD2181368C400240FCF
:100A0000C001C00E8440A3430B43136070BD0000BF
:100A10001C02005010B504460749084B05E00A4681
:100A2000491E002A01DC002010BDDA6820469043F0
:100A3000F5D1012010BD000060EA00000002005066
:100A400010B501224021024800F004F810BD00005A
:100A500000410050F0B5002301273C469C400C4269
:100A600008D005685C000326A640B5431646A6409C
:100A7000354305605B1C102BEFD3F0BD044603A08B
:100A8000FFF7BAFB204600F079FAFEE7496E2048EE
:100A9000617264204661756C742048616E646C6597
:100AA000720A0000BFF34F8F04490348C860BFF3C8
:100AB0004F8F00BFFDE700000400FA0500ED00E0E5
:100AC00070B559201621234C882202E02060216055
:100AD00022602368012BF9D10520FFF7A1FE112028
:100AE000FFF798FF0A20FFF79BFE0A20FFF792FF0F
:100AF00000210720FFF740FF1748FFF7FFFE174DC3
:100B00002846FFF739FE002203212846FFF75AFF47
:100B1000134D2846FFF730FE0121002289032846A5
:100B2000FFF750FF05200007816B77229143816317
:100B3000816B112211438163C16B0722120491431F
:100B4000012292048918C16300F076F80020206029
:100B500070BD00000001005080DE8002103D00A644
:100B6000833DC4AE0521020E090751188B6801228E
:100B7000824013438B608868904388607047000010
:100B800006498A695205FCD408600A2804D188699C
:100B90004005FCD40D2008607047000000000540AF
:100BA00010B50D4C206941070C48490F0DD00129A3
:100BB00004D0022905D0032906D006E00120C00395
:100BC00003E000F00FF800E00548E1690907090FAC
:100BD000491CFFF745FC10BD00020050001BB70088
:100BE0001027000010B51248406AC10301D500204B
:100BF00010BDC10401D5022400E001248105890F44
:100C00000FD001290FD002290FD010218006800EAD
:100C1000084A20305043FFF723FC2146FFF720FC11
:100C200010BD0221F2E70421F0E70821EEE7000001
:100C300000020050001BB70010B5FFF7B1FF044CD5
:100C4000044920604A108018FFF70AFC606010BD5C
:100C50000000002040420F0010B5094C7D22D20058
:100C60001021204600F03EF8E16801200143E160D8
:100C7000044A4102116021680143216010BD000057
:100C80000001014000E100E01FB510491EC90394B6
:100C90006C460EC40E4A0F49904202D14869000AC0
:100CA00004E00D4A90420AD14869000B4007400F0A
:100CB000042809D280006946085804B010BD074ACC
:100CC00090428869EBD0F0E70548F6E77410000021
:100CD00000000140000200500001014000001140EE
:100CE000001BB700F7B517460646FFF7CDFF0446D1
:100CF00000254008B84201D2022010E00121490637
:100D00008C4202D30325A40805E0012109068C4288
:100D100001D30125044639462046FFF7A1FBB06008
:100D20007560019931606D1C684301462046FFF7EC
:100D300097FBFEBD70B50B480169C907C90F10D0FC
:100D40000124046100F06EF9074D68687D21C90037
:100D5000FFF786FB002903D1044881696140816166
:100D6000686870BD000101400C0000200043005085
:100D700010B5064C20691121084202D110BD00F0C7
:100D8000B1F8A0698007FAD510BD00000000054049
:100D900010B51848FFF7E6FE174CE121490220463E
:100DA00000F066F81121204600F05EF8012013499A
:100DB00000030860FFF752FD014611A0FFF71CFA7F
:100DC000FFF754FD014615A0FFF716FAFFF756FD91
:100DD000014612A0FFF710FAFFF75AFD014615A0D1
:100DE000FFF70AFAFFF760FD014618A0FFF704FAC3
:100DF00010BD0000100000040000054000E100E00C
:100E00000D0A434C4B5F47657443505546726571FC
:100E1000203A202538640D0A00000000434C4B5F47
:100E200047657448585446726571203A20253864E5
:100E30000D0A0000434C4B5F4765744C5854467292
:100E40006571203A202538640D0A0000434C4B5F41
:100E500047657450434C4B3046726571203A2025EB
:100E600038640D0A00000000C2680A43C26070477F
:100E70007FB5194A0E4604460FCA6D460FC517497D
:100E800048696A468007000F1058C96909050D0FA7
:100E90006D1C002801D1FFF7A5FE2946FFF7E0FAF7
:100EA00005460020A0630320A060002E13D0700828
:100EB00040193146FFF7D4FA0949401E884209D942
:100EC000F00040193146FFF7CBFA01210009C907AC
:100ED000401E084360627FBD4410000000020050C5
:100EE000FFFF000010B50D480068C0B2782813D08D
:100EF000582811D07F2803D909A0FFF77DF910BD2C
:100F00005A2809D004DC3128F9D05828F7D103E059
:100F1000782801D07A28F2D1FFF7C4FD00000540FF
:100F2000696E76616C696420636F6D6D616E640DCE
:100F30000A00000030380A2801D201207047002042
:100F400070470020C043704700B50346FFF718FE06
:100F5000184600BDFFF7B4FDFFF71AFFFFF770FD5D
:100F6000FFF77AFE044881698905FCD500210C2031
:100F7000FFF7F2FBFEE700000000054010B5044655
:100F8000016810A0FFF738F911A06168FFF734F984
:100F900012A0A168FFF730F913A0E168FFF72CF960
:100FA00014A02169FFF728F915A06169FFF724F95A
:100FB00016A0A169FFF720F917A0E169FFF71CF956
:100FC00010BD0000723020203D20307825780A00C6
:100FD000723120203D20307825780A00723220209E
:100FE0003D20307825780A00723320203D2030786B
:100FF00025780A00723132203D20307825780A00A9
:101000006C7220203D20307825780A007063202003
:101010003D20307825780A00707372203D203078AA
:1010200025780A0002484168491C41607047000069
:101030000C00002002000000040000000800000076
:1010400010000000001BB70000800000000000003E
:10105000001BB700001BB70000800000000000006C
:10106000001BB700001BB70000800000000000005C
:10107000001BB700001BB700008000001027000015
:1010800000000000303132333435363738394142D0
:1010900043444546403058003031323334353637DA
:1010A0003839616263646566403078000400000886
:1010B000000000000000000200010000100000001D
:1010C000E0100000000000201400000004010000F7
:1010D000F410000014000020640A00002001000049
:1010E000001BB7000C000000000000000000000022
:0410F00000000000FC
:04000005000001995D
:00000001FF
